{
  "_format": "hh-sol-artifact-1",
  "contractName": "Transaction",
  "sourceName": "contracts/Transaction.sol",
  "abi": [
    {
      "anonymous": false,
      "inputs": [
        {
          "indexed": false,
          "internalType": "address",
          "name": "from",
          "type": "address"
        },
        {
          "indexed": false,
          "internalType": "address",
          "name": "receiver",
          "type": "address"
        },
        {
          "indexed": false,
          "internalType": "uint256",
          "name": "amount",
          "type": "uint256"
        },
        {
          "indexed": false,
          "internalType": "string",
          "name": "message",
          "type": "string"
        },
        {
          "indexed": false,
          "internalType": "uint256",
          "name": "timestamp",
          "type": "uint256"
        },
        {
          "indexed": false,
          "internalType": "string",
          "name": "keyword",
          "type": "string"
        }
      ],
      "name": "Transfer",
      "type": "event"
    },
    {
      "inputs": [
        {
          "internalType": "address payable",
          "name": "receiver",
          "type": "address"
        },
        {
          "internalType": "uint256",
          "name": "amount",
          "type": "uint256"
        },
        {
          "internalType": "string",
          "name": "message",
          "type": "string"
        },
        {
          "internalType": "string",
          "name": "keyword",
          "type": "string"
        }
      ],
      "name": "addToBlockchain",
      "outputs": [],
      "stateMutability": "nonpayable",
      "type": "function"
    },
    {
      "inputs": [],
      "name": "getAllTransaction",
      "outputs": [
        {
          "components": [
            {
              "internalType": "address",
              "name": "sender",
              "type": "address"
            },
            {
              "internalType": "address",
              "name": "receiver",
              "type": "address"
            },
            {
              "internalType": "uint256",
              "name": "amount",
              "type": "uint256"
            },
            {
              "internalType": "string",
              "name": "message",
              "type": "string"
            },
            {
              "internalType": "uint256",
              "name": "timeStamp",
              "type": "uint256"
            },
            {
              "internalType": "string",
              "name": "keyword",
              "type": "string"
            }
          ],
          "internalType": "struct Transaction.TransferStruct[]",
          "name": "",
          "type": "tuple[]"
        }
      ],
      "stateMutability": "view",
      "type": "function"
    },
    {
      "inputs": [],
      "name": "getTransactionCount",
      "outputs": [
        {
          "internalType": "uint256",
          "name": "",
          "type": "uint256"
        }
      ],
      "stateMutability": "view",
      "type": "function"
    }
  ],
  "bytecode": "0x608060405234801561001057600080fd5b50610c66806100206000396000f3fe608060405234801561001057600080fd5b50600436106100415760003560e01c80632e7700f014610046578063add6415d14610064578063cc2d7ead14610082575b600080fd5b61004e61009e565b60405161005b9190610566565b60405180910390f35b61006c6100a7565b60405161007991906107bc565b60405180910390f35b61009c60048036038101906100979190610991565b6102ea565b005b60008054905090565b60606001805480602002602001604051908101604052809291908181526020016000905b828210156102e157838290600052602060002090600602016040518060c00160405290816000820160009054906101000a900473ffffffffffffffffffffffffffffffffffffffff1673ffffffffffffffffffffffffffffffffffffffff1673ffffffffffffffffffffffffffffffffffffffff1681526020016001820160009054906101000a900473ffffffffffffffffffffffffffffffffffffffff1673ffffffffffffffffffffffffffffffffffffffff1673ffffffffffffffffffffffffffffffffffffffff168152602001600282015481526020016003820180546101b490610a5f565b80601f01602080910402602001604051908101604052809291908181526020018280546101e090610a5f565b801561022d5780601f106102025761010080835404028352916020019161022d565b820191906000526020600020905b81548152906001019060200180831161021057829003601f168201915b505050505081526020016004820154815260200160058201805461025090610a5f565b80601f016020809104026020016040519081016040528092919081815260200182805461027c90610a5f565b80156102c95780601f1061029e576101008083540402835291602001916102c9565b820191906000526020600020905b8154815290600101906020018083116102ac57829003601f168201915b505050505081525050815260200190600101906100cb565b50505050905090565b6000808154809291906102fc90610ac0565b919050555060016040518060c001604052803373ffffffffffffffffffffffffffffffffffffffff1681526020018673ffffffffffffffffffffffffffffffffffffffff16815260200185815260200184815260200142815260200183815250908060018154018082558091505060019003906000526020600020906006020160009091909190915060008201518160000160006101000a81548173ffffffffffffffffffffffffffffffffffffffff021916908373ffffffffffffffffffffffffffffffffffffffff16021790555060208201518160010160006101000a81548173ffffffffffffffffffffffffffffffffffffffff021916908373ffffffffffffffffffffffffffffffffffffffff1602179055506040820151816002015560608201518160030190805190602001906104399291906104aa565b506080820151816004015560a08201518160050190805190602001906104609291906104aa565b5050507f416cfa4330a4565f45c2fd2dd4826a83a37443aba2ce6f79477c7355afac35fa33858585428660405161049c96959493929190610bc1565b60405180910390a150505050565b8280546104b690610a5f565b90600052602060002090601f0160209004810192826104d8576000855561051f565b82601f106104f157805160ff191683800117855561051f565b8280016001018555821561051f579182015b8281111561051e578251825591602001919060010190610503565b5b50905061052c9190610530565b5090565b5b80821115610549576000816000905550600101610531565b5090565b6000819050919050565b6105608161054d565b82525050565b600060208201905061057b6000830184610557565b92915050565b600081519050919050565b600082825260208201905092915050565b6000819050602082019050919050565b600073ffffffffffffffffffffffffffffffffffffffff82169050919050565b60006105d8826105ad565b9050919050565b6105e8816105cd565b82525050565b6105f78161054d565b82525050565b600081519050919050565b600082825260208201905092915050565b60005b8381101561063757808201518184015260208101905061061c565b83811115610646576000848401525b50505050565b6000601f19601f8301169050919050565b6000610668826105fd565b6106728185610608565b9350610682818560208601610619565b61068b8161064c565b840191505092915050565b600060c0830160008301516106ae60008601826105df565b5060208301516106c160208601826105df565b5060408301516106d460408601826105ee565b50606083015184820360608601526106ec828261065d565b915050608083015161070160808601826105ee565b5060a083015184820360a0860152610719828261065d565b9150508091505092915050565b60006107328383610696565b905092915050565b6000602082019050919050565b600061075282610581565b61075c818561058c565b93508360208202850161076e8561059d565b8060005b858110156107aa578484038952815161078b8582610726565b94506107968361073a565b925060208a01995050600181019050610772565b50829750879550505050505092915050565b600060208201905081810360008301526107d68184610747565b905092915050565b6000604051905090565b600080fd5b600080fd5b60006107fd826105ad565b9050919050565b61080d816107f2565b811461081857600080fd5b50565b60008135905061082a81610804565b92915050565b6108398161054d565b811461084457600080fd5b50565b60008135905061085681610830565b92915050565b600080fd5b600080fd5b7f4e487b7100000000000000000000000000000000000000000000000000000000600052604160045260246000fd5b61089e8261064c565b810181811067ffffffffffffffff821117156108bd576108bc610866565b5b80604052505050565b60006108d06107de565b90506108dc8282610895565b919050565b600067ffffffffffffffff8211156108fc576108fb610866565b5b6109058261064c565b9050602081019050919050565b82818337600083830152505050565b600061093461092f846108e1565b6108c6565b9050828152602081018484840111156109505761094f610861565b5b61095b848285610912565b509392505050565b600082601f8301126109785761097761085c565b5b8135610988848260208601610921565b91505092915050565b600080600080608085870312156109ab576109aa6107e8565b5b60006109b98782880161081b565b94505060206109ca87828801610847565b935050604085013567ffffffffffffffff8111156109eb576109ea6107ed565b5b6109f787828801610963565b925050606085013567ffffffffffffffff811115610a1857610a176107ed565b5b610a2487828801610963565b91505092959194509250565b7f4e487b7100000000000000000000000000000000000000000000000000000000600052602260045260246000fd5b60006002820490506001821680610a7757607f821691505b60208210811415610a8b57610a8a610a30565b5b50919050565b7f4e487b7100000000000000000000000000000000000000000000000000000000600052601160045260246000fd5b6000610acb8261054d565b91507fffffffffffffffffffffffffffffffffffffffffffffffffffffffffffffffff821415610afe57610afd610a91565b5b600182019050919050565b610b12816105cd565b82525050565b6000819050919050565b6000610b3d610b38610b33846105ad565b610b18565b6105ad565b9050919050565b6000610b4f82610b22565b9050919050565b6000610b6182610b44565b9050919050565b610b7181610b56565b82525050565b600082825260208201905092915050565b6000610b93826105fd565b610b9d8185610b77565b9350610bad818560208601610619565b610bb68161064c565b840191505092915050565b600060c082019050610bd66000830189610b09565b610be36020830188610b68565b610bf06040830187610557565b8181036060830152610c028186610b88565b9050610c116080830185610557565b81810360a0830152610c238184610b88565b905097965050505050505056fea2646970667358221220003b27bfa22f6f1ffb586fe0ecc92b04c0dbfff0451681b31ccb51d0c49e359864736f6c63430008090033",
  "linkReferences": {},
  "deployedLinkReferences": {}
}