{
  "contractName": "Election",
  "abi": [
    {
      "inputs": [],
      "stateMutability": "nonpayable",
      "type": "constructor"
    },
    {
      "anonymous": false,
      "inputs": [
        {
          "indexed": true,
          "internalType": "uint256",
          "name": "_candidateId",
          "type": "uint256"
        }
      ],
      "name": "votedEvent",
      "type": "event"
    },
    {
      "inputs": [
        {
          "internalType": "uint256",
          "name": "",
          "type": "uint256"
        }
      ],
      "name": "candidates",
      "outputs": [
        {
          "internalType": "uint256",
          "name": "id",
          "type": "uint256"
        },
        {
          "internalType": "string",
          "name": "name",
          "type": "string"
        },
        {
          "internalType": "uint256",
          "name": "voteCount",
          "type": "uint256"
        }
      ],
      "stateMutability": "view",
      "type": "function"
    },
    {
      "inputs": [],
      "name": "candidatesCount",
      "outputs": [
        {
          "internalType": "uint256",
          "name": "",
          "type": "uint256"
        }
      ],
      "stateMutability": "view",
      "type": "function"
    },
    {
      "inputs": [
        {
          "internalType": "address",
          "name": "",
          "type": "address"
        }
      ],
      "name": "voters",
      "outputs": [
        {
          "internalType": "bool",
          "name": "",
          "type": "bool"
        }
      ],
      "stateMutability": "view",
      "type": "function"
    },
    {
      "inputs": [
        {
          "internalType": "string",
          "name": "name",
          "type": "string"
        }
      ],
      "name": "AddCandidate",
      "outputs": [],
      "stateMutability": "nonpayable",
      "type": "function"
    },
    {
      "inputs": [
        {
          "internalType": "uint256",
          "name": "candidateId",
          "type": "uint256"
        }
      ],
      "name": "vote",
      "outputs": [],
      "stateMutability": "nonpayable",
      "type": "function"
    }
  ],
  "bytecode": "0x60806040523480156200001157600080fd5b50620000586040518060400160405280600e81526020017f416268697368656b204b756d6172000000000000000000000000000000000000815250620000ea60201b60201c565b6200009e6040518060400160405280600b81526020017f566976656b204b756d6172000000000000000000000000000000000000000000815250620000ea60201b60201c565b620000e46040518060400160405280600b81526020017f416e6b6974204b756d6172000000000000000000000000000000000000000000815250620000ea60201b60201c565b62000545565b60016000815480929190620000ff90620001a1565b919050555060405180606001604052806001548152602001828152602001600081525060008060015481526020019081526020016000206000820151816000015560208201518160010190816200015791906200045e565b506040820151816002015590505050565b7f4e487b7100000000000000000000000000000000000000000000000000000000600052601160045260246000fd5b6000819050919050565b6000620001ae8262000197565b91507fffffffffffffffffffffffffffffffffffffffffffffffffffffffffffffffff8203620001e357620001e262000168565b5b600182019050919050565b600081519050919050565b7f4e487b7100000000000000000000000000000000000000000000000000000000600052604160045260246000fd5b7f4e487b7100000000000000000000000000000000000000000000000000000000600052602260045260246000fd5b600060028204905060018216806200027057607f821691505b60208210810362000286576200028562000228565b5b50919050565b60008190508160005260206000209050919050565b60006020601f8301049050919050565b600082821b905092915050565b600060088302620002f07fffffffffffffffffffffffffffffffffffffffffffffffffffffffffffffffff82620002b1565b620002fc8683620002b1565b95508019841693508086168417925050509392505050565b6000819050919050565b60006200033f62000339620003338462000197565b62000314565b62000197565b9050919050565b6000819050919050565b6200035b836200031e565b620003736200036a8262000346565b848454620002be565b825550505050565b600090565b6200038a6200037b565b6200039781848462000350565b505050565b5b81811015620003bf57620003b360008262000380565b6001810190506200039d565b5050565b601f8211156200040e57620003d8816200028c565b620003e384620002a1565b81016020851015620003f3578190505b6200040b6200040285620002a1565b8301826200039c565b50505b505050565b600082821c905092915050565b6000620004336000198460080262000413565b1980831691505092915050565b60006200044e838362000420565b9150826002028217905092915050565b6200046982620001ee565b67ffffffffffffffff811115620004855762000484620001f9565b5b62000491825462000257565b6200049e828285620003c3565b600060209050601f831160018114620004d65760008415620004c1578287015190505b620004cd858262000440565b8655506200053d565b601f198416620004e6866200028c565b60005b828110156200051057848901518255600182019150602085019450602081019050620004e9565b868310156200053057848901516200052c601f89168262000420565b8355505b6001600288020188555050505b505050505050565b610acd80620005556000396000f3fe608060405234801561001057600080fd5b50600436106100575760003560e01c80630121b93f1461005c5780632d35a8a2146100785780633477ee2e146100965780637e54b8e2146100c8578063a3ec138d146100e4575b600080fd5b610076600480360381019061007191906103d5565b610114565b005b610080610239565b60405161008d9190610411565b60405180910390f35b6100b060048036038101906100ab91906103d5565b61023f565b6040516100bf939291906104c5565b60405180910390f35b6100e260048036038101906100dd9190610638565b6102f1565b005b6100fe60048036038101906100f991906106df565b61036b565b60405161010b9190610727565b60405180910390f35b600260003373ffffffffffffffffffffffffffffffffffffffff1673ffffffffffffffffffffffffffffffffffffffff16815260200190815260200160002060009054906101000a900460ff161561016b57600080fd5b60008111801561017d57506001548111155b61018657600080fd5b6001600260003373ffffffffffffffffffffffffffffffffffffffff1673ffffffffffffffffffffffffffffffffffffffff16815260200190815260200160002060006101000a81548160ff021916908315150217905550600080828152602001908152602001600020600201600081548092919061020490610771565b9190505550807ffff3c900d938d21d0990d786e819f29b8d05c1ef587b462b939609625b684b1660405160405180910390a250565b60015481565b6000602052806000526040600020600091509050806000015490806001018054610268906107e8565b80601f0160208091040260200160405190810160405280929190818152602001828054610294906107e8565b80156102e15780601f106102b6576101008083540402835291602001916102e1565b820191906000526020600020905b8154815290600101906020018083116102c457829003601f168201915b5050505050908060020154905083565b6001600081548092919061030490610771565b9190505550604051806060016040528060015481526020018281526020016000815250600080600154815260200190815260200160002060008201518160000155602082015181600101908161035a91906109c5565b506040820151816002015590505050565b60026020528060005260406000206000915054906101000a900460ff1681565b6000604051905090565b600080fd5b600080fd5b6000819050919050565b6103b28161039f565b81146103bd57600080fd5b50565b6000813590506103cf816103a9565b92915050565b6000602082840312156103eb576103ea610395565b5b60006103f9848285016103c0565b91505092915050565b61040b8161039f565b82525050565b60006020820190506104266000830184610402565b92915050565b600081519050919050565b600082825260208201905092915050565b60005b8381101561046657808201518184015260208101905061044b565b83811115610475576000848401525b50505050565b6000601f19601f8301169050919050565b60006104978261042c565b6104a18185610437565b93506104b1818560208601610448565b6104ba8161047b565b840191505092915050565b60006060820190506104da6000830186610402565b81810360208301526104ec818561048c565b90506104fb6040830184610402565b949350505050565b600080fd5b600080fd5b7f4e487b7100000000000000000000000000000000000000000000000000000000600052604160045260246000fd5b6105458261047b565b810181811067ffffffffffffffff821117156105645761056361050d565b5b80604052505050565b600061057761038b565b9050610583828261053c565b919050565b600067ffffffffffffffff8211156105a3576105a261050d565b5b6105ac8261047b565b9050602081019050919050565b82818337600083830152505050565b60006105db6105d684610588565b61056d565b9050828152602081018484840111156105f7576105f6610508565b5b6106028482856105b9565b509392505050565b600082601f83011261061f5761061e610503565b5b813561062f8482602086016105c8565b91505092915050565b60006020828403121561064e5761064d610395565b5b600082013567ffffffffffffffff81111561066c5761066b61039a565b5b6106788482850161060a565b91505092915050565b600073ffffffffffffffffffffffffffffffffffffffff82169050919050565b60006106ac82610681565b9050919050565b6106bc816106a1565b81146106c757600080fd5b50565b6000813590506106d9816106b3565b92915050565b6000602082840312156106f5576106f4610395565b5b6000610703848285016106ca565b91505092915050565b60008115159050919050565b6107218161070c565b82525050565b600060208201905061073c6000830184610718565b92915050565b7f4e487b7100000000000000000000000000000000000000000000000000000000600052601160045260246000fd5b600061077c8261039f565b91507fffffffffffffffffffffffffffffffffffffffffffffffffffffffffffffffff82036107ae576107ad610742565b5b600182019050919050565b7f4e487b7100000000000000000000000000000000000000000000000000000000600052602260045260246000fd5b6000600282049050600182168061080057607f821691505b602082108103610813576108126107b9565b5b50919050565b60008190508160005260206000209050919050565b60006020601f8301049050919050565b600082821b905092915050565b60006008830261087b7fffffffffffffffffffffffffffffffffffffffffffffffffffffffffffffffff8261083e565b610885868361083e565b95508019841693508086168417925050509392505050565b6000819050919050565b60006108c26108bd6108b88461039f565b61089d565b61039f565b9050919050565b6000819050919050565b6108dc836108a7565b6108f06108e8826108c9565b84845461084b565b825550505050565b600090565b6109056108f8565b6109108184846108d3565b505050565b5b81811015610934576109296000826108fd565b600181019050610916565b5050565b601f8211156109795761094a81610819565b6109538461082e565b81016020851015610962578190505b61097661096e8561082e565b830182610915565b50505b505050565b600082821c905092915050565b600061099c6000198460080261097e565b1980831691505092915050565b60006109b5838361098b565b9150826002028217905092915050565b6109ce8261042c565b67ffffffffffffffff8111156109e7576109e661050d565b5b6109f182546107e8565b6109fc828285610938565b600060209050601f831160018114610a2f5760008415610a1d578287015190505b610a2785826109a9565b865550610a8f565b601f198416610a3d86610819565b60005b82811015610a6557848901518255600182019150602085019450602081019050610a40565b86831015610a825784890151610a7e601f89168261098b565b8355505b6001600288020188555050505b50505050505056fea2646970667358221220b73ab64b30232b736df1eacdb4e11892f9b71265fa1279d4a395a67572f0b19564736f6c634300080f0033",
  "immutableReferences": {},
  "source": "// SPDX-License-Identifier: MIT\r\npragma solidity ^0.8;\r\n\r\ncontract Election{\r\n    struct Candidate{\r\n        uint id;\r\n        string name;\r\n        uint voteCount;\r\n    }\r\n    mapping(uint=>Candidate) public candidates;\r\n    uint public candidatesCount;\r\n    mapping (address=>bool) public voters;\r\n    event votedEvent(\r\n        uint indexed _candidateId\r\n    );\r\n    constructor(){\r\n        AddCandidate(\"Abhishek Kumar\");\r\n        AddCandidate(\"Vivek Kumar\");\r\n        AddCandidate(\"Ankit Kumar\");\r\n    }\r\n\r\n    function AddCandidate(string memory name)public{\r\n        candidatesCount++;\r\n        candidates[candidatesCount] = Candidate(candidatesCount, name, 0);\r\n    }\r\n    function vote(uint candidateId) public {\r\n            require(!voters[msg.sender]);\r\n            require(candidateId>0 && candidateId <= candidatesCount);\r\n            voters[msg.sender] = true;\r\n            candidates[candidateId].voteCount++;\r\n            emit votedEvent(candidateId);\r\n    }\r\n\r\n\r\n}",
  "sourcePath": "C:\\This_is_me\\Programing\\Blockchain\\Project\\Election\\contracts\\Election.sol",
  "compiler": {
    "name": "solc",
    "version": "0.8.15+commit.e14f2714.Emscripten.clang"
  },
  "schemaVersion": "3.4.4",
  "updatedAt": "2022-07-19T14:32:18.926Z",
  "devdoc": {
    "kind": "dev",
    "methods": {},
    "version": 1
  },
  "userdoc": {
    "kind": "user",
    "methods": {},
    "version": 1
  }
}